{
  "contractName": "Corona",
  "abi": [
    {
      "constant": true,
      "inputs": [
        {
          "internalType": "string",
          "name": "key",
          "type": "string"
        }
      ],
      "name": "getDataHash",
      "outputs": [
        {
          "internalType": "string",
          "name": "",
          "type": "string"
        }
      ],
      "payable": false,
      "stateMutability": "view",
      "type": "function"
    },
    {
      "constant": true,
      "inputs": [
        {
          "internalType": "string",
          "name": "key",
          "type": "string"
        }
      ],
      "name": "getFileHash",
      "outputs": [
        {
          "internalType": "string",
          "name": "",
          "type": "string"
        }
      ],
      "payable": false,
      "stateMutability": "view",
      "type": "function"
    },
    {
      "constant": false,
      "inputs": [
        {
          "internalType": "string",
          "name": "hashId",
          "type": "string"
        },
        {
          "internalType": "string",
          "name": "key",
          "type": "string"
        }
      ],
      "name": "setDataHash",
      "outputs": [],
      "payable": false,
      "stateMutability": "nonpayable",
      "type": "function"
    },
    {
      "constant": false,
      "inputs": [
        {
          "internalType": "string",
          "name": "hashId",
          "type": "string"
        },
        {
          "internalType": "string",
          "name": "key",
          "type": "string"
        }
      ],
      "name": "setFileHash",
      "outputs": [],
      "payable": false,
      "stateMutability": "nonpayable",
      "type": "function"
    },
    {
      "constant": false,
      "inputs": [
        {
          "internalType": "string",
          "name": "key",
          "type": "string"
        }
      ],
      "name": "partyA",
      "outputs": [],
      "payable": false,
      "stateMutability": "nonpayable",
      "type": "function"
    }
  ],
  "bytecode": "0x608060405273249cc999cc542913bb71dd26a13c38d5af316f55600160006101000a81548173ffffffffffffffffffffffffffffffffffffffff021916908373ffffffffffffffffffffffffffffffffffffffff16021790555073ed59deb6e99eb382c0f3f68a7ed2e9616995e4b3600260006101000a81548173ffffffffffffffffffffffffffffffffffffffff021916908373ffffffffffffffffffffffffffffffffffffffff1602179055507308159690689add3045e494dd07b7c77d7c2355bc600360006101000a81548173ffffffffffffffffffffffffffffffffffffffff021916908373ffffffffffffffffffffffffffffffffffffffff16021790555034801561010f57600080fd5b50610a728061011f6000396000f3fe608060405234801561001057600080fd5b50600436106100575760003560e01c8063048fb8621461005c5780632bfa79c214610190578063b3ad051a1461024b578063cbb41a031461039d578063f880680b146104ef575b600080fd5b6101156004803603602081101561007257600080fd5b810190808035906020019064010000000081111561008f57600080fd5b8201836020820111156100a157600080fd5b803590602001918460018302840111640100000000831117156100c357600080fd5b91908080601f016020809104026020016040519081016040528093929190818152602001838380828437600081840152601f19601f820116905080830192505050505050509192919290505050610623565b6040518080602001828103825283818151815260200191508051906020019080838360005b8381101561015557808201518184015260208101905061013a565b50505050905090810190601f1680156101825780820380516001836020036101000a031916815260200191505b509250505060405180910390f35b610249600480360360208110156101a657600080fd5b81019080803590602001906401000000008111156101c357600080fd5b8201836020820111156101d557600080fd5b803590602001918460018302840111640100000000831117156101f757600080fd5b91908080601f016020809104026020016040519081016040528093929190818152602001838380828437600081840152601f19601f820116905080830192505050505050509192919290505050610744565b005b61039b6004803603604081101561026157600080fd5b810190808035906020019064010000000081111561027e57600080fd5b82018360208201111561029057600080fd5b803590602001918460018302840111640100000000831117156102b257600080fd5b91908080601f016020809104026020016040519081016040528093929190818152602001838380828437600081840152601f19601f8201169050808301925050505050505091929192908035906020019064010000000081111561031557600080fd5b82018360208201111561032757600080fd5b8035906020019184600183028401116401000000008311171561034957600080fd5b91908080601f016020809104026020016040519081016040528093929190818152602001838380828437600081840152601f19601f820116905080830192505050505050509192919290505050610747565b005b6104ed600480360360408110156103b357600080fd5b81019080803590602001906401000000008111156103d057600080fd5b8201836020820111156103e257600080fd5b8035906020019184600183028401116401000000008311171561040457600080fd5b91908080601f016020809104026020016040519081016040528093929190818152602001838380828437600081840152601f19601f8201169050808301925050505050505091929192908035906020019064010000000081111561046757600080fd5b82018360208201111561047957600080fd5b8035906020019184600183028401116401000000008311171561049b57600080fd5b91908080601f016020809104026020016040519081016040528093929190818152602001838380828437600081840152601f19601f8201169050808301925050505050505091929192905050506107df565b005b6105a86004803603602081101561050557600080fd5b810190808035906020019064010000000081111561052257600080fd5b82018360208201111561053457600080fd5b8035906020019184600183028401116401000000008311171561055657600080fd5b91908080601f016020809104026020016040519081016040528093929190818152602001838380828437600081840152601f19601f820116905080830192505050505050509192919290505050610877565b6040518080602001828103825283818151815260200191508051906020019080838360005b838110156105e85780820151818401526020810190506105cd565b50505050905090810190601f1680156106155780820380516001836020036101000a031916815260200191505b509250505060405180910390f35b60606000826040518082805190602001908083835b6020831061065b5780518252602082019150602081019050602083039250610638565b6001836020036101000a038019825116818451168082178552505050505050905001915050908152602001604051809103902060008154811061069a57fe5b906000526020600020018054600181600116156101000203166002900480601f0160208091040260200160405190810160405280929190818152602001828054600181600116156101000203166002900480156107385780601f1061070d57610100808354040283529160200191610738565b820191906000526020600020905b81548152906001019060200180831161071b57829003601f168201915b50505050509050919050565b50565b816000826040518082805190602001908083835b6020831061077e578051825260208201915060208101905060208303925061075b565b6001836020036101000a03801982511681845116808217855250505050505090500191505090815260200160405180910390206001815481106107bd57fe5b9060005260206000200190805190602001906107da929190610998565b505050565b816000826040518082805190602001908083835b6020831061081657805182526020820191506020810190506020830392506107f3565b6001836020036101000a038019825116818451168082178552505050505050905001915050908152602001604051809103902060008154811061085557fe5b906000526020600020019080519060200190610872929190610998565b505050565b60606000826040518082805190602001908083835b602083106108af578051825260208201915060208101905060208303925061088c565b6001836020036101000a03801982511681845116808217855250505050505090500191505090815260200160405180910390206001815481106108ee57fe5b906000526020600020018054600181600116156101000203166002900480601f01602080910402602001604051908101604052809291908181526020018280546001816001161561010002031660029004801561098c5780601f106109615761010080835404028352916020019161098c565b820191906000526020600020905b81548152906001019060200180831161096f57829003601f168201915b50505050509050919050565b828054600181600116156101000203166002900490600052602060002090601f016020900481019282601f106109d957805160ff1916838001178555610a07565b82800160010185558215610a07579182015b82811115610a065782518255916020019190600101906109eb565b5b509050610a149190610a18565b5090565b610a3a91905b80821115610a36576000816000905550600101610a1e565b5090565b9056fea265627a7a72315820fd723677870ead53b403fbda8d93ec722ccceb2677c9d8d2d16cee66e9c5380564736f6c63430005100032",
  "source": "pragma solidity >=0.5.12;\n\n\ncontract Corona {\n    mapping(string => string[]) users;\n    address A = 0x249cC999Cc542913Bb71DD26A13c38d5Af316F55;\n    address B = 0xED59DEb6E99eB382c0F3f68a7eD2e9616995e4B3;\n    address C = 0x08159690689aDD3045e494DD07b7C77D7c2355bC;\n\n    // address A;\n    // address B;\n    // address C;\n\n    // constructor(address _A, address _B, address _C) public {\n    //     A = _A;\n    //     B = _B;\n    //     C = _C;\n    // }\n\n    function getDataHash(string memory key)\n        public\n        view\n        returns (string memory)\n    {\n        return users[key][0];\n    }\n\n    function getFileHash(string memory key)\n        public\n        view\n        returns (string memory)\n    {\n        return users[key][1];\n    }\n\n    function setDataHash(string memory hashId, string memory key) public {\n        users[key][0] = hashId;\n    }\n\n    function setFileHash(string memory hashId, string memory key) public {\n        users[key][1] = hashId;\n    }\n\n    function partyA(string memory key) public {}\n}\n",
  "sourcePath": "/home/ajita/Desktop/tncorona/tncorona/contracts/Corona.sol",
  "compiler": {
    "name": "solc",
    "version": "0.5.16+commit.9c3226ce.Emscripten.clang"
  },
  "schemaVersion": "3.0.23",
  "updatedAt": "2020-05-07T07:04:33.999Z",
  "networkType": "ethereum",
  "devdoc": {
    "methods": {}
  },
  "userdoc": {
    "methods": {}
  }
}