{
  "contractName": "Corona",
  "abi": [
    {
      "constant": true,
      "inputs": [
        {
          "internalType": "string",
          "name": "key",
          "type": "string"
        }
      ],
      "name": "getDataHash",
      "outputs": [
        {
          "internalType": "string",
          "name": "",
          "type": "string"
        }
      ],
      "payable": false,
      "stateMutability": "view",
      "type": "function"
    },
    {
      "constant": true,
      "inputs": [
        {
          "internalType": "string",
          "name": "key",
          "type": "string"
        }
      ],
      "name": "getFileHash",
      "outputs": [
        {
          "internalType": "string",
          "name": "",
          "type": "string"
        }
      ],
      "payable": false,
      "stateMutability": "view",
      "type": "function"
    },
    {
      "constant": false,
      "inputs": [
        {
          "internalType": "string",
          "name": "hashId",
          "type": "string"
        },
        {
          "internalType": "string",
          "name": "key",
          "type": "string"
        }
      ],
      "name": "setDataHash",
      "outputs": [],
      "payable": false,
      "stateMutability": "nonpayable",
      "type": "function"
    },
    {
      "constant": false,
      "inputs": [
        {
          "internalType": "string",
          "name": "hashId",
          "type": "string"
        },
        {
          "internalType": "string",
          "name": "key",
          "type": "string"
        }
      ],
      "name": "setFileHash",
      "outputs": [],
      "payable": false,
      "stateMutability": "nonpayable",
      "type": "function"
    },
    {
      "constant": false,
      "inputs": [
        {
          "internalType": "string",
          "name": "key",
          "type": "string"
        }
      ],
      "name": "setpartyA",
      "outputs": [],
      "payable": false,
      "stateMutability": "nonpayable",
      "type": "function"
    },
    {
      "constant": true,
      "inputs": [],
      "name": "getpartyA",
      "outputs": [
        {
          "internalType": "string",
          "name": "",
          "type": "string"
        }
      ],
      "payable": false,
      "stateMutability": "view",
      "type": "function"
    },
    {
      "constant": false,
      "inputs": [
        {
          "internalType": "bool",
          "name": "decision",
          "type": "bool"
        }
      ],
      "name": "verdictA",
      "outputs": [],
      "payable": false,
      "stateMutability": "nonpayable",
      "type": "function"
    },
    {
      "constant": false,
      "inputs": [
        {
          "internalType": "string",
          "name": "key",
          "type": "string"
        }
      ],
      "name": "setpartyB",
      "outputs": [],
      "payable": false,
      "stateMutability": "nonpayable",
      "type": "function"
    },
    {
      "constant": true,
      "inputs": [],
      "name": "getpartyB",
      "outputs": [
        {
          "internalType": "string",
          "name": "",
          "type": "string"
        }
      ],
      "payable": false,
      "stateMutability": "view",
      "type": "function"
    },
    {
      "constant": false,
      "inputs": [
        {
          "internalType": "bool",
          "name": "decision",
          "type": "bool"
        }
      ],
      "name": "verdictB",
      "outputs": [],
      "payable": false,
      "stateMutability": "nonpayable",
      "type": "function"
    },
    {
      "constant": true,
      "inputs": [],
      "name": "verdictC",
      "outputs": [
        {
          "internalType": "bool",
          "name": "",
          "type": "bool"
        }
      ],
      "payable": false,
      "stateMutability": "view",
      "type": "function"
    }
  ],
  "bytecode": "0x608060405273249cc999cc542913bb71dd26a13c38d5af316f55600360026101000a81548173ffffffffffffffffffffffffffffffffffffffff021916908373ffffffffffffffffffffffffffffffffffffffff16021790555073ed59deb6e99eb382c0f3f68a7ed2e9616995e4b3600460006101000a81548173ffffffffffffffffffffffffffffffffffffffff021916908373ffffffffffffffffffffffffffffffffffffffff1602179055507308159690689add3045e494dd07b7c77d7c2355bc600560006101000a81548173ffffffffffffffffffffffffffffffffffffffff021916908373ffffffffffffffffffffffffffffffffffffffff16021790555034801561010f57600080fd5b50610f7c8061011f6000396000f3fe608060405234801561001057600080fd5b50600436106100a95760003560e01c8063a174049511610071578063a1740495146103c5578063b3ad051a146103f5578063c506705b14610547578063cbb41a0314610577578063e3ea510f146106c9578063f880680b14610784576100a9565b8063048fb862146100ae5780632de26f1f146101e2578063568a7bb21461029d57806369adc8f6146103205780638746871d146103a3575b600080fd5b610167600480360360208110156100c457600080fd5b81019080803590602001906401000000008111156100e157600080fd5b8201836020820111156100f357600080fd5b8035906020019184600183028401116401000000008311171561011557600080fd5b91908080601f016020809104026020016040519081016040528093929190818152602001838380828437600081840152601f19601f8201169050808301925050505050505091929192905050506108b8565b6040518080602001828103825283818151815260200191508051906020019080838360005b838110156101a757808201518184015260208101905061018c565b50505050905090810190601f1680156101d45780820380516001836020036101000a031916815260200191505b509250505060405180910390f35b61029b600480360360208110156101f857600080fd5b810190808035906020019064010000000081111561021557600080fd5b82018360208201111561022757600080fd5b8035906020019184600183028401116401000000008311171561024957600080fd5b91908080601f016020809104026020016040519081016040528093929190818152602001838380828437600081840152601f19601f8201169050808301925050505050505091929192905050506109d9565b005b6102a5610a1b565b6040518080602001828103825283818151815260200191508051906020019080838360005b838110156102e55780820151818401526020810190506102ca565b50505050905090810190601f1680156103125780820380516001836020036101000a031916815260200191505b509250505060405180910390f35b610328610ada565b6040518080602001828103825283818151815260200191508051906020019080838360005b8381101561036857808201518184015260208101905061034d565b50505050905090810190601f1680156103955780820380516001836020036101000a031916815260200191505b509250505060405180910390f35b6103ab610b97565b604051808215151515815260200191505060405180910390f35b6103f3600480360360208110156103db57600080fd5b81019080803515159060200190929190505050610bc3565b005b6105456004803603604081101561040b57600080fd5b810190808035906020019064010000000081111561042857600080fd5b82018360208201111561043a57600080fd5b8035906020019184600183028401116401000000008311171561045c57600080fd5b91908080601f016020809104026020016040519081016040528093929190818152602001838380828437600081840152601f19601f820116905080830192505050505050509192919290803590602001906401000000008111156104bf57600080fd5b8201836020820111156104d157600080fd5b803590602001918460018302840111640100000000831117156104f357600080fd5b91908080601f016020809104026020016040519081016040528093929190818152602001838380828437600081840152601f19601f820116905080830192505050505050509192919290505050610be0565b005b6105756004803603602081101561055d57600080fd5b81019080803515159060200190929190505050610c78565b005b6106c76004803603604081101561058d57600080fd5b81019080803590602001906401000000008111156105aa57600080fd5b8201836020820111156105bc57600080fd5b803590602001918460018302840111640100000000831117156105de57600080fd5b91908080601f016020809104026020016040519081016040528093929190818152602001838380828437600081840152601f19601f8201169050808301925050505050505091929192908035906020019064010000000081111561064157600080fd5b82018360208201111561065357600080fd5b8035906020019184600183028401116401000000008311171561067557600080fd5b91908080601f016020809104026020016040519081016040528093929190818152602001838380828437600081840152601f19601f820116905080830192505050505050509192919290505050610c95565b005b610782600480360360208110156106df57600080fd5b81019080803590602001906401000000008111156106fc57600080fd5b82018360208201111561070e57600080fd5b8035906020019184600183028401116401000000008311171561073057600080fd5b91908080601f016020809104026020016040519081016040528093929190818152602001838380828437600081840152601f19601f820116905080830192505050505050509192919290505050610d3f565b005b61083d6004803603602081101561079a57600080fd5b81019080803590602001906401000000008111156107b757600080fd5b8201836020820111156107c957600080fd5b803590602001918460018302840111640100000000831117156107eb57600080fd5b91908080601f016020809104026020016040519081016040528093929190818152602001838380828437600081840152601f19601f820116905080830192505050505050509192919290505050610d81565b6040518080602001828103825283818151815260200191508051906020019080838360005b8381101561087d578082015181840152602081019050610862565b50505050905090810190601f1680156108aa5780820380516001836020036101000a031916815260200191505b509250505060405180910390f35b60606000826040518082805190602001908083835b602083106108f057805182526020820191506020810190506020830392506108cd565b6001836020036101000a038019825116818451168082178552505050505050905001915050908152602001604051809103902060008154811061092f57fe5b906000526020600020018054600181600116156101000203166002900480601f0160208091040260200160405190810160405280929190818152602001828054600181600116156101000203166002900480156109cd5780601f106109a2576101008083540402835291602001916109cd565b820191906000526020600020905b8154815290600101906020018083116109b057829003601f168201915b50505050509050919050565b6002819080600181540180825580915050906001820390600052602060002001600090919290919091509080519060200190610a16929190610ea2565b505050565b6060600260016002805490500381548110610a3257fe5b906000526020600020018054600181600116156101000203166002900480601f016020809104026020016040519081016040528092919081815260200182805460018160011615610100020316600290048015610ad05780601f10610aa557610100808354040283529160200191610ad0565b820191906000526020600020905b815481529060010190602001808311610ab357829003601f168201915b5050505050905090565b606060018080805490500381548110610aef57fe5b906000526020600020018054600181600116156101000203166002900480601f016020809104026020016040519081016040528092919081815260200182805460018160011615610100020316600290048015610b8d5780601f10610b6257610100808354040283529160200191610b8d565b820191906000526020600020905b815481529060010190602001808311610b7057829003601f168201915b5050505050905090565b6000600360019054906101000a900460ff161515600360009054906101000a900460ff16151514905090565b80600360006101000a81548160ff02191690831515021790555050565b816000826040518082805190602001908083835b60208310610c175780518252602082019150602081019050602083039250610bf4565b6001836020036101000a0380198251168184511680821785525050505050509050019150509081526020016040518091039020600181548110610c5657fe5b906000526020600020019080519060200190610c73929190610ea2565b505050565b80600360016101000a81548160ff02191690831515021790555050565b6000816040518082805190602001908083835b60208310610ccb5780518252602082019150602081019050602083039250610ca8565b6001836020036101000a0380198251168184511680821785525050505050509050019150509081526020016040518091039020829080600181540180825580915050906001820390600052602060002001600090919290919091509080519060200190610d39929190610ea2565b50505050565b6001819080600181540180825580915050906001820390600052602060002001600090919290919091509080519060200190610d7c929190610ea2565b505050565b60606000826040518082805190602001908083835b60208310610db95780518252602082019150602081019050602083039250610d96565b6001836020036101000a0380198251168184511680821785525050505050509050019150509081526020016040518091039020600181548110610df857fe5b906000526020600020018054600181600116156101000203166002900480601f016020809104026020016040519081016040528092919081815260200182805460018160011615610100020316600290048015610e965780601f10610e6b57610100808354040283529160200191610e96565b820191906000526020600020905b815481529060010190602001808311610e7957829003601f168201915b50505050509050919050565b828054600181600116156101000203166002900490600052602060002090601f016020900481019282601f10610ee357805160ff1916838001178555610f11565b82800160010185558215610f11579182015b82811115610f10578251825591602001919060010190610ef5565b5b509050610f1e9190610f22565b5090565b610f4491905b80821115610f40576000816000905550600101610f28565b5090565b9056fea265627a7a723158207130d5db8f6c9a37462a7ae0b67e77b0819ee7d2c9677c689f28a083866e4d1864736f6c63430005100032",
  "source": "pragma solidity >=0.5.12;\n\n\ncontract Corona {\n    mapping(string => string[]) users;\n    string[] partyA;\n    string[] partyB;\n    bool decisionA;\n    bool decisionB;\n    address A = 0x249cC999Cc542913Bb71DD26A13c38d5Af316F55;\n    address B = 0xED59DEb6E99eB382c0F3f68a7eD2e9616995e4B3;\n    address C = 0x08159690689aDD3045e494DD07b7C77D7c2355bC;\n\n    // address A;\n    // address B;\n    // address C;\n\n    // constructor(address _A, address _B, address _C) public {\n    //     A = _A;\n    //     B = _B;\n    //     C = _C;\n    // }\n\n    function getDataHash(string memory key)\n        public\n        view\n        returns (string memory)\n    {\n        return users[key][0];\n    }\n\n    function getFileHash(string memory key)\n        public\n        view\n        returns (string memory)\n    {\n        return users[key][1];\n    }\n\n    function setDataHash(string memory hashId, string memory key) public {\n        users[key].push(hashId);\n    }\n\n    function setFileHash(string memory hashId, string memory key) public {\n        users[key][1] = hashId;\n    }\n\n    function setpartyA(string memory key) public {\n        partyA.push(key);\n    }\n\n    function getpartyA() public view returns (string memory) {\n        return partyA[partyA.length - 1];\n    }\n\n    function verdictA(bool decision) public {\n        decisionA = decision;\n    }\n\n    function setpartyB(string memory key) public {\n        partyB.push(key);\n    }\n\n    function getpartyB() public view returns (string memory) {\n        return partyB[partyB.length - 1];\n    }\n\n    function verdictB(bool decision) public {\n        decisionB = decision;\n    }\n\n    function verdictC() public view returns (bool) {\n        return (decisionA == decisionB);\n    }\n}\n",
  "sourcePath": "/home/ajita/Desktop/tncorona/tncorona/contracts/Corona.sol",
  "compiler": {
    "name": "solc",
    "version": "0.5.16+commit.9c3226ce.Emscripten.clang"
  },
  "schemaVersion": "3.0.23",
  "updatedAt": "2020-05-07T19:36:47.408Z",
  "networkType": "ethereum",
  "devdoc": {
    "methods": {}
  },
  "userdoc": {
    "methods": {}
  }
}