{
  "contractName": "Corona",
  "abi": [
    {
      "constant": true,
      "inputs": [
        {
          "internalType": "string",
          "name": "key",
          "type": "string"
        }
      ],
      "name": "getDataHash",
      "outputs": [
        {
          "internalType": "string",
          "name": "",
          "type": "string"
        }
      ],
      "payable": false,
      "stateMutability": "view",
      "type": "function"
    },
    {
      "constant": true,
      "inputs": [
        {
          "internalType": "string",
          "name": "key",
          "type": "string"
        }
      ],
      "name": "getFileHash",
      "outputs": [
        {
          "internalType": "string",
          "name": "",
          "type": "string"
        }
      ],
      "payable": false,
      "stateMutability": "view",
      "type": "function"
    },
    {
      "constant": false,
      "inputs": [
        {
          "internalType": "string",
          "name": "hashId",
          "type": "string"
        },
        {
          "internalType": "string",
          "name": "key",
          "type": "string"
        }
      ],
      "name": "setDataHash",
      "outputs": [],
      "payable": false,
      "stateMutability": "nonpayable",
      "type": "function"
    },
    {
      "constant": false,
      "inputs": [
        {
          "internalType": "string",
          "name": "hashId",
          "type": "string"
        },
        {
          "internalType": "string",
          "name": "key",
          "type": "string"
        }
      ],
      "name": "setFileHash",
      "outputs": [],
      "payable": false,
      "stateMutability": "nonpayable",
      "type": "function"
    },
    {
      "constant": false,
      "inputs": [
        {
          "internalType": "string",
          "name": "key",
          "type": "string"
        }
      ],
      "name": "setpartyA",
      "outputs": [],
      "payable": false,
      "stateMutability": "nonpayable",
      "type": "function"
    },
    {
      "constant": true,
      "inputs": [],
      "name": "getpartyA",
      "outputs": [
        {
          "internalType": "string",
          "name": "",
          "type": "string"
        }
      ],
      "payable": false,
      "stateMutability": "view",
      "type": "function"
    }
  ],
  "bytecode": "0x608060405273249cc999cc542913bb71dd26a13c38d5af316f55600260006101000a81548173ffffffffffffffffffffffffffffffffffffffff021916908373ffffffffffffffffffffffffffffffffffffffff16021790555073ed59deb6e99eb382c0f3f68a7ed2e9616995e4b3600360006101000a81548173ffffffffffffffffffffffffffffffffffffffff021916908373ffffffffffffffffffffffffffffffffffffffff1602179055507308159690689add3045e494dd07b7c77d7c2355bc600460006101000a81548173ffffffffffffffffffffffffffffffffffffffff021916908373ffffffffffffffffffffffffffffffffffffffff16021790555034801561010f57600080fd5b50610c0e8061011f6000396000f3fe608060405234801561001057600080fd5b50600436106100625760003560e01c8063048fb8621461006757806369adc8f61461019b578063b3ad051a1461021e578063cbb41a0314610370578063e3ea510f146104c2578063f880680b1461057d575b600080fd5b6101206004803603602081101561007d57600080fd5b810190808035906020019064010000000081111561009a57600080fd5b8201836020820111156100ac57600080fd5b803590602001918460018302840111640100000000831117156100ce57600080fd5b91908080601f016020809104026020016040519081016040528093929190818152602001838380828437600081840152601f19601f8201169050808301925050505050505091929192905050506106b1565b6040518080602001828103825283818151815260200191508051906020019080838360005b83811015610160578082015181840152602081019050610145565b50505050905090810190601f16801561018d5780820380516001836020036101000a031916815260200191505b509250505060405180910390f35b6101a36107d2565b6040518080602001828103825283818151815260200191508051906020019080838360005b838110156101e35780820151818401526020810190506101c8565b50505050905090810190601f1680156102105780820380516001836020036101000a031916815260200191505b509250505060405180910390f35b61036e6004803603604081101561023457600080fd5b810190808035906020019064010000000081111561025157600080fd5b82018360208201111561026357600080fd5b8035906020019184600183028401116401000000008311171561028557600080fd5b91908080601f016020809104026020016040519081016040528093929190818152602001838380828437600081840152601f19601f820116905080830192505050505050509192919290803590602001906401000000008111156102e857600080fd5b8201836020820111156102fa57600080fd5b8035906020019184600183028401116401000000008311171561031c57600080fd5b91908080601f016020809104026020016040519081016040528093929190818152602001838380828437600081840152601f19601f82011690508083019250505050505050919291929050505061088f565b005b6104c06004803603604081101561038657600080fd5b81019080803590602001906401000000008111156103a357600080fd5b8201836020820111156103b557600080fd5b803590602001918460018302840111640100000000831117156103d757600080fd5b91908080601f016020809104026020016040519081016040528093929190818152602001838380828437600081840152601f19601f8201169050808301925050505050505091929192908035906020019064010000000081111561043a57600080fd5b82018360208201111561044c57600080fd5b8035906020019184600183028401116401000000008311171561046e57600080fd5b91908080601f016020809104026020016040519081016040528093929190818152602001838380828437600081840152601f19601f820116905080830192505050505050509192919290505050610927565b005b61057b600480360360208110156104d857600080fd5b81019080803590602001906401000000008111156104f557600080fd5b82018360208201111561050757600080fd5b8035906020019184600183028401116401000000008311171561052957600080fd5b91908080601f016020809104026020016040519081016040528093929190818152602001838380828437600081840152601f19601f8201169050808301925050505050505091929192905050506109d1565b005b6106366004803603602081101561059357600080fd5b81019080803590602001906401000000008111156105b057600080fd5b8201836020820111156105c257600080fd5b803590602001918460018302840111640100000000831117156105e457600080fd5b91908080601f016020809104026020016040519081016040528093929190818152602001838380828437600081840152601f19601f820116905080830192505050505050509192919290505050610a13565b6040518080602001828103825283818151815260200191508051906020019080838360005b8381101561067657808201518184015260208101905061065b565b50505050905090810190601f1680156106a35780820380516001836020036101000a031916815260200191505b509250505060405180910390f35b60606000826040518082805190602001908083835b602083106106e957805182526020820191506020810190506020830392506106c6565b6001836020036101000a038019825116818451168082178552505050505050905001915050908152602001604051809103902060008154811061072857fe5b906000526020600020018054600181600116156101000203166002900480601f0160208091040260200160405190810160405280929190818152602001828054600181600116156101000203166002900480156107c65780601f1061079b576101008083540402835291602001916107c6565b820191906000526020600020905b8154815290600101906020018083116107a957829003601f168201915b50505050509050919050565b6060600180808054905003815481106107e757fe5b906000526020600020018054600181600116156101000203166002900480601f0160208091040260200160405190810160405280929190818152602001828054600181600116156101000203166002900480156108855780601f1061085a57610100808354040283529160200191610885565b820191906000526020600020905b81548152906001019060200180831161086857829003601f168201915b5050505050905090565b816000826040518082805190602001908083835b602083106108c657805182526020820191506020810190506020830392506108a3565b6001836020036101000a038019825116818451168082178552505050505050905001915050908152602001604051809103902060018154811061090557fe5b906000526020600020019080519060200190610922929190610b34565b505050565b6000816040518082805190602001908083835b6020831061095d578051825260208201915060208101905060208303925061093a565b6001836020036101000a03801982511681845116808217855250505050505090500191505090815260200160405180910390208290806001815401808255809150509060018203906000526020600020016000909192909190915090805190602001906109cb929190610b34565b50505050565b6001819080600181540180825580915050906001820390600052602060002001600090919290919091509080519060200190610a0e929190610b34565b505050565b60606000826040518082805190602001908083835b60208310610a4b5780518252602082019150602081019050602083039250610a28565b6001836020036101000a0380198251168184511680821785525050505050509050019150509081526020016040518091039020600181548110610a8a57fe5b906000526020600020018054600181600116156101000203166002900480601f016020809104026020016040519081016040528092919081815260200182805460018160011615610100020316600290048015610b285780601f10610afd57610100808354040283529160200191610b28565b820191906000526020600020905b815481529060010190602001808311610b0b57829003601f168201915b50505050509050919050565b828054600181600116156101000203166002900490600052602060002090601f016020900481019282601f10610b7557805160ff1916838001178555610ba3565b82800160010185558215610ba3579182015b82811115610ba2578251825591602001919060010190610b87565b5b509050610bb09190610bb4565b5090565b610bd691905b80821115610bd2576000816000905550600101610bba565b5090565b9056fea265627a7a72315820d9a1186bb76e0fac16b51a09a43d28cf3dd153ca090365cc8a4dc8e1e7b20f0764736f6c63430005100032",
  "source": "pragma solidity >=0.5.12;\n\n\ncontract Corona {\n    mapping(string => string[]) users;\n    string[] partyA;\n    address A = 0x249cC999Cc542913Bb71DD26A13c38d5Af316F55;\n    address B = 0xED59DEb6E99eB382c0F3f68a7eD2e9616995e4B3;\n    address C = 0x08159690689aDD3045e494DD07b7C77D7c2355bC;\n\n    // address A;\n    // address B;\n    // address C;\n\n    // constructor(address _A, address _B, address _C) public {\n    //     A = _A;\n    //     B = _B;\n    //     C = _C;\n    // }\n\n    function getDataHash(string memory key)\n        public\n        view\n        returns (string memory)\n    {\n        return users[key][0];\n    }\n\n    function getFileHash(string memory key)\n        public\n        view\n        returns (string memory)\n    {\n        return users[key][1];\n    }\n\n    function setDataHash(string memory hashId, string memory key) public {\n        users[key].push(hashId);\n    }\n\n    function setFileHash(string memory hashId, string memory key) public {\n        users[key][1] = hashId;\n    }\n\n    function setpartyA(string memory key) public {\n        partyA.push(key);\n    }\n\n    function getpartyA() public view returns (string memory) {\n        return partyA[partyA.length - 1];\n    }\n}\n",
  "sourcePath": "/home/ajita/Desktop/tncorona/tncorona/contracts/Corona.sol",
  "compiler": {
    "name": "solc",
    "version": "0.5.16+commit.9c3226ce.Emscripten.clang"
  },
  "schemaVersion": "3.0.23",
  "updatedAt": "2020-05-07T10:51:16.842Z",
  "networkType": "ethereum",
  "devdoc": {
    "methods": {}
  },
  "userdoc": {
    "methods": {}
  }
}